{
  "_format": "hh3-artifact-1",
  "contractName": "Adashe",
  "sourceName": "contracts/Adashe.sol",
  "abi": [
    {
      "inputs": [
        {
          "internalType": "uint8",
          "name": "_maxAmountOfPeople",
          "type": "uint8"
        },
        {
          "internalType": "uint256",
          "name": "_amount",
          "type": "uint256"
        },
        {
          "internalType": "uint64",
          "name": "_duration",
          "type": "uint64"
        }
      ],
      "stateMutability": "nonpayable",
      "type": "constructor"
    },
    {
      "inputs": [],
      "name": "amountPerHead",
      "outputs": [
        {
          "internalType": "uint256",
          "name": "",
          "type": "uint256"
        }
      ],
      "stateMutability": "view",
      "type": "function"
    },
    {
      "inputs": [],
      "name": "duration",
      "outputs": [
        {
          "internalType": "uint64",
          "name": "",
          "type": "uint64"
        }
      ],
      "stateMutability": "view",
      "type": "function"
    },
    {
      "inputs": [
        {
          "internalType": "uint8",
          "name": "_personId",
          "type": "uint8"
        }
      ],
      "name": "getAdasheMember",
      "outputs": [
        {
          "components": [
            {
              "internalType": "string",
              "name": "name",
              "type": "string"
            },
            {
              "internalType": "address",
              "name": "addr",
              "type": "address"
            },
            {
              "internalType": "uint256",
              "name": "turn",
              "type": "uint256"
            }
          ],
          "internalType": "struct Adashe.Person",
          "name": "person_",
          "type": "tuple"
        }
      ],
      "stateMutability": "view",
      "type": "function"
    },
    {
      "inputs": [],
      "name": "maxPeople",
      "outputs": [
        {
          "internalType": "uint8",
          "name": "",
          "type": "uint8"
        }
      ],
      "stateMutability": "view",
      "type": "function"
    },
    {
      "inputs": [],
      "name": "noOfPeople",
      "outputs": [
        {
          "internalType": "uint8",
          "name": "",
          "type": "uint8"
        }
      ],
      "stateMutability": "view",
      "type": "function"
    },
    {
      "inputs": [
        {
          "internalType": "string",
          "name": "_name",
          "type": "string"
        }
      ],
      "name": "registerForAdashe",
      "outputs": [
        {
          "internalType": "uint256",
          "name": "turn_",
          "type": "uint256"
        }
      ],
      "stateMutability": "nonpayable",
      "type": "function"
    }
  ],
  "bytecode": "0x6080604052348015600e575f5ffd5b50604051610741380380610741833981016040819052602b91606d565b5f805460ff9094166101000261ff001990941693909317909255600155600280546001600160401b039092166001600160401b031990921691909117905560ba565b5f5f5f60608486031215607e575f5ffd5b835160ff81168114608d575f5ffd5b6020850151604086015191945092506001600160401b038116811460af575f5ffd5b809150509250925092565b61067a806100c75f395ff3fe608060405234801561000f575f5ffd5b5060043610610060575f3560e01c80630fb5a6b41461006457806315fb710814610096578063432c897d146100b4578063ac8ca0ef146100d5578063b2ceb154146100f5578063fe08402314610106575b5f5ffd5b6002546100789067ffffffffffffffff1681565b60405167ffffffffffffffff90911681526020015b60405180910390f35b5f546100a29060ff1681565b60405160ff909116815260200161008d565b6100c76100c23660046103ac565b61010f565b60405190815260200161008d565b6100e86100e336600461045f565b61029e565b60405161008d9190610486565b5f546100a290610100900460ff1681565b6100c760015481565b5f8054829060ff61010082048116911611156101635760405162461bcd60e51b815260206004820152600e60248201526d1059185cda19481a5cc8199d5b1b60921b60448201526064015b60405180910390fd5b5f805460ff169080610174836104e1565b91906101000a81548160ff021916908360ff160217905550506002600881819054906101000a900460ff16809291906101ac906104e1565b825460ff9182166101009390930a9283029190920219909116179055503361020e5760405162461bcd60e51b81526020600482015260156024820152741859191c995cdcc81e995c9bc819195d1958dd1959605a1b604482015260640161015a565b604080516060810182528481523360208083019190915260025460ff600160401b9091048116838501525f80549091168152600390915291909120815181906102579082610589565b5060208201516001820180546001600160a01b0319166001600160a01b0390921691909117905560409091015160029182015554600160401b900460ff1691505b50919050565b6102c96040518060600160405280606081526020015f6001600160a01b031681526020015f81525090565b60ff82165f90815260036020526040908190208151606081019092528054829082906102f49061050b565b80601f01602080910402602001604051908101604052809291908181526020018280546103209061050b565b801561036b5780601f106103425761010080835404028352916020019161036b565b820191905f5260205f20905b81548152906001019060200180831161034e57829003601f168201915b505050918352505060018201546001600160a01b0316602082015260029091015460409091015292915050565b634e487b7160e01b5f52604160045260245ffd5b5f602082840312156103bc575f5ffd5b813567ffffffffffffffff8111156103d2575f5ffd5b8201601f810184136103e2575f5ffd5b803567ffffffffffffffff8111156103fc576103fc610398565b604051601f8201601f19908116603f0116810167ffffffffffffffff8111828210171561042b5761042b610398565b604052818152828201602001861015610442575f5ffd5b816020840160208301375f91810160200191909152949350505050565b5f6020828403121561046f575f5ffd5b813560ff8116811461047f575f5ffd5b9392505050565b602081525f8251606060208401528051806080850152806020830160a086015e5f60a0828601015260018060a01b0360208601511660408501526040850151606085015260a0601f19601f8301168501019250505092915050565b5f60ff821660ff810361050257634e487b7160e01b5f52601160045260245ffd5b60010192915050565b600181811c9082168061051f57607f821691505b60208210810361029857634e487b7160e01b5f52602260045260245ffd5b601f82111561058457805f5260205f20601f840160051c810160208510156105625750805b601f840160051c820191505b81811015610581575f815560010161056e565b50505b505050565b815167ffffffffffffffff8111156105a3576105a3610398565b6105b7816105b1845461050b565b8461053d565b6020601f8211600181146105e9575f83156105d25750848201515b5f19600385901b1c1916600184901b178455610581565b5f84815260208120601f198516915b8281101561061857878501518255602094850194600190920191016105f8565b508482101561063557868401515f19600387901b60f8161c191681555b50505050600190811b0190555056fea264697066735822122092e8674f25b53242cd67489612eb10d929c0b727f4fb2500874af9dac9b4beb564736f6c634300081e0033",
  "linkReferences": {},
  "deployedLinkReferences": {},
  "immutableReferences": {},
  "inputSourceName": "project/contracts/Adashe.sol",
  "buildInfoId": "solc-0_8_30-7357f9f8c267377f2b0881bbe949be6c06d24190"
}