{
  "_format": "hh3-artifact-1",
  "contractName": "Counter",
  "sourceName": "contracts/Counter.sol",
  "abi": [
    {
      "anonymous": false,
      "inputs": [
        {
          "indexed": true,
          "internalType": "uint256",
          "name": "by",
          "type": "uint256"
        }
      ],
      "name": "Increment",
      "type": "event"
    },
    {
      "inputs": [],
      "name": "dec",
      "outputs": [],
      "stateMutability": "nonpayable",
      "type": "function"
    },
    {
      "inputs": [],
      "name": "inc",
      "outputs": [],
      "stateMutability": "nonpayable",
      "type": "function"
    },
    {
      "inputs": [
        {
          "internalType": "uint256",
          "name": "by",
          "type": "uint256"
        }
      ],
      "name": "incBy",
      "outputs": [],
      "stateMutability": "nonpayable",
      "type": "function"
    },
    {
      "inputs": [],
      "name": "x",
      "outputs": [
        {
          "internalType": "uint256",
          "name": "",
          "type": "uint256"
        }
      ],
      "stateMutability": "view",
      "type": "function"
    }
  ],
  "bytecode": "0x6080604052348015600e575f5ffd5b506102a58061001c5f395ff3fe608060405234801561000f575f5ffd5b506004361061004a575f3560e01c80630c55699c1461004e578063371303c01461006857806370119d0614610072578063b3bcfa8214610085575b5f5ffd5b6100565f5481565b60405190815260200160405180910390f35b61007061008d565b005b6100706100803660046101fe565b6100cd565b61007061016f565b5f8054908061009b83610229565b90915550506040516001907f51af157c2eee40f68107a47a49c32fbbeb0a3c9e5cd37aa56e88e6be92368a81905f90a2565b5f811161012d5760405162461bcd60e51b815260206004820152602360248201527f696e6342793a20696e6372656d656e742073686f756c6420626520706f73697460448201526269766560e81b60648201526084015b60405180910390fd5b805f5f82825461013d9190610241565b909155505060405181907f51af157c2eee40f68107a47a49c32fbbeb0a3c9e5cd37aa56e88e6be92368a81905f90a250565b5f5f54116101bf5760405162461bcd60e51b815260206004820152601c60248201527f6465633a20636f756e74657220697320616c7265616479207a65726f000000006044820152606401610124565b5f805490806101cd8361025a565b90915550506040515f907f51af157c2eee40f68107a47a49c32fbbeb0a3c9e5cd37aa56e88e6be92368a81908290a2565b5f6020828403121561020e575f5ffd5b5035919050565b634e487b7160e01b5f52601160045260245ffd5b5f6001820161023a5761023a610215565b5060010190565b8082018082111561025457610254610215565b92915050565b5f8161026857610268610215565b505f19019056fea26469706673582212208ba0c112d828f66928466a3f53da10a4afce0d0bdaa60201458310fa359ea68564736f6c634300081c0033",
  "linkReferences": {},
  "deployedLinkReferences": {},
  "immutableReferences": {},
  "inputSourceName": "project/contracts/Counter.sol",
  "buildInfoId": "solc-0_8_28-66f261a069e9c5a1467119c923c80b1579f9ea4f"
}